:020000022000DC
:040000000C9400005C
:020000020000FC
:02000000FFC03F
:0201800078C045
:1002000057D025D032D006D031E03093042067D0CB
:100210000BD048D000E00093E1060FEF0093A10659
:1002200002E00093A4060895E0E0F0E208E70093FE
:100230000E2000E000930F2002E3009310200FEF48
:10024000009315200FEF0093162038D2089501E097
:100250000093E90601E00093A20001E00093EA06A2
:1002600002E00093F00678940895DFD0E9D04ED1F3
:1002700008953091042033953093042014D02FD06A
:10028000D3DF3B3009F0189532E03093A7060BD04E
:10029000FBCF40E04A95F1F7089550E0FADF5A9518
:1002A000E9F70895FFCF60E2F8DF6A95E9F708956E
:1002B0000F9307EC009352000091500008600093E8
:1002C00050000091510003FFFCCF08ED04BF03E094
:1002D0000093400008E0009350000F9108950F93A1
:1002E0001F932F93009104200093072053D0A0E088
:1002F000B0E21091092010930B2082D020910D20A4
:100300002D9310910A2010930B207AD010910C207D
:1003100020910D201D932D9300E00C932F911F91A0
:100320000F9108958F939F932F933F93332780913D
:1003300005209091062097FF04C080959095019626
:1003400030E12FEF239580519742E0F7232B209344
:1003500008202AE02A9588519C4FE0F33FEF33951F
:1003600084569040E0F7220F220F220F220F232BFA
:10037000209309202AE02A95865FE8F3220F220FB6
:10038000220F220F282B20930A203F912F919F911B
:100390008F9108950F931F93109107200FEF0395EE
:1003A0001456E8F7009309200AE00A95165FE8F36F
:1003B000000F000F000F000F012B00930A201F9168
:1003C0000F9108950F921F920F931F930AE0002E32
:1003D00000910A201FE010230695069506950695C4
:1003E000009D100D04E6002E009109200F70009D65
:1003F000100D109307201F910F911F900F900895DB
:100400000F931F9310E300910B2006950695069518
:100410000695010F00930C2000910B200F70010F27
:1004200000930D201F910F9108950F930091800666
:10043000006B009380060CE50093C00A0F910895AD
:100440000F934F935F936F93009180060360009327
:100450008006009184060E7F026100938406F0D12D
:10046000009184060D7F00938406FAD100918406E2
:10047000026000938406ECD163E050E041E0B0D12B
:1004800060E150E040E0ACD165E050E040E0A8D150
:1004900060E75BE240E8A4D161E756E340E0A0D129
:1004A00062E75EE340E09CD163E75FE149E198D118
:1004B00064E752E244E194D165E752E24BE190D126
:1004C00066E75EE146E18CD167E754E241EE88D110
:1004D00068E756E247E184D1B3D118D00091840691
:1004E000016000938406B4D1B3D1B2D1B1D165E03B
:1004F00050E041E075D10FEF009315200FEF00930E
:1005000016206F915F914F910F9108950F931F9354
:100510002F934F935F936F932AD162E250E040E0B4
:1005200024E014E600EC5CD10A950030E1F71A955E
:100530001030C1F72A952030A1F700E000930E207B
:1005400000930F20009310202FD16F915F914F9156
:100550002F911F910F9108954F935F936F9324D123
:1005600062E240911520509116203AD16F915F912F
:100570004F9108950F921F920F931F932F933F93C4
:100580004F935F936F93EF93FF9308E000931120D5
:1005900000E0009312200EE000931320BDD02091C4
:1005A0001420203208F002C023E223C02F3708F1C4
:1005B000243E11F42FE71DC0263F11F420E819C096
:1005C0002C3F11F421E815C0243C11F422E811C09D
:1005D000263D11F423E80DC02C3D11F424E809C098
:1005E0002F3D11F425E805C0203B11F426E801C099
:1005F00023E2EAE7F8E020523EE0239FE00DF11D00
:1006000062E200E0359110E0232F2078203029F0BD
:10061000409115205091162002C040E050E0E0D0FB
:10062000330F1395183081F703950E3059F7109159
:100630000E2020910F203091102099D010930E2081
:1006400020930F2030931020FF91EF916F915F91D5
:100650004F913F912F911F910F911F900F900895EF
:100660000F931F932F933F934F935F936F93EF934A
:10067000FF9350910E2060910F2008E010E025912B
:10068000203071F02093142075DF30910E204091BE
:100690000F20300F411F30930E2040930F20EFCFDB
:1006A00050930E2060930F20FF91EF916F915F9117
:1006B0004F913F912F911F910F9108950F931F9389
:1006C0002F933F934F935F936F93EF93FF935091CB
:1006D0000E2060910F2008E010E02191203071F091
:1006E0002093142047DF30910E2040910F20300FCF
:1006F000411F30930E2040930F20EFCF50930E20D8
:1007000060930F20FF91EF916F915F914F913F9117
:100710002F911F910F9108950F931F934F935F9304
:100720006F9351E04FE300910E2010910F20401B7A
:10073000510B66E355D00091112010911220015009
:100740001040401B510B65E34BD04FEE0091102041
:10075000401B009113200A95542F501B67E340D093
:1007600023D06F915F914F911F910F9108950F9337
:100770004F935F936F9365E350E040E031D066E3C1
:1007800051E04FE32DD067E350E04FEE29D000E079
:1007900000930E2000930F200093102005D06F913E
:1007A0005F914F910F9108950F931F934F935F9314
:1007B0006F9351E04FE300910E2010910F20401BEA
:1007C000510B61E20DD04FEE00911020401B50E024
:1007D00060E206D06F915F914F911F910F91089544
:1007E0000F939F93009184060F7E0093840690E7F9
:1007F0001CD090E01AD0962F18D00091840600618A
:1008000000938406009184060F7E0093840692E78D
:100810000CD0952F0AD0942F08D000918406006147
:10082000009384069F910F9108950F939093C30AAC
:100830000091C20A07FFFCCF0091C30A0F910895EF
:100840002F9324E60DD02A952030E1F72F910895BB
:100850002F932AE005D02A952030E1F72F910895B3
:100860000F931F9310E10AEF0A950030E9F71A95EC
:100870001030D1F71F910F91089500000000000083
:100880000000000000000000000000183C3C3C1884
:1008900018001818000000666666240000000000BA
:1008A000000000000000006C6CFE6C6C6CFE6C6C58
:1008B00000000018187CC6C2C07C0686C67C1818CA
:1008C0000000000000C2C60C183066C60000000020
:1008D00000386C6C3876DCCCCC7600000018181828
:1008E000300000000000000000000000000C183084
:1008F00030303030180C000000000030180C0C0CA8
:100900000C0C183000000000000000663CFF3C6644
:1009100000000000000000000018187E18180000F9
:10092000000000000000000000000018181830004F
:1009300000000000000000FE0000000000000000B9
:100940000000000000000000181800000000000275
:10095000060C183060C080000000000000386CC633
:10096000C6D6C6C66C3800000000001838781818C3
:100970001818187E00000000007CC6060C183060B5
:10098000C6FE00000000007CC606063C0606C67CCB
:1009900000000000000C1C3C6CCCFE0C0C1E000087
:1009A000000000FEC0C0C0FC0606C67C00000000BF
:1009B000003860C0C0FCC6C6C67C0000000000FE57
:1009C000C6060C183030303000000000007CC6C66F
:1009D000C67CC6C6C67C00000000007CC6C6C67EBB
:1009E00006060C780000000000001818000000182F
:1009F000180000000000000018180000001818304F
:100A000000000000000C183060C06030180C0000BE
:100A10000000000000007E00007E000000000000DA
:100A2000006030180C060C18306000000000007CDC
:100A3000C6C60C181800181800000000007CC6C6B6
:100A4000DEDEDEDCC07C000000000010386CC6C6B4
:100A5000FEC6C6C60000000000FC6666667C6666D0
:100A600066FC00000000003C66C2C0C0C0C2663C1C
:100A70000000000000F86C66666666666CF80000B0
:100A8000000000FE66626878686266FE0000000092
:100A900000FE66626878686060F000000000003C5C
:100AA00066C2C0C0DEC6663A0000000000C6C6C608
:100AB000C6FEC6C6C6C600000000003C18181818BE
:100AC0001818183C00000000001E0C0C0C0C0CCC7C
:100AD000CC780000000000E6666C6C786C6C66E612
:100AE0000000000000F060606060606266FE000070
:100AF000000000C6EEFED6C6C6C6C6C60000000090
:100B000000C6E6F6FEDECEC6C6C600000000007CCB
:100B1000C6C6C6C6C6C6C67C0000000000FC666627
:100B2000667C606060F000000000007CC6C6C6C63F
:100B3000C6D6DE7C0E00000000FC6666667C6C6635
:100B400066E600000000007CC6C660380CC6C67CA5
:100B500000000000007E7E5A18181818183C00008B
:100B6000000000C6C6C6C6C6C6C6C67C00000000D9
:100B700000C6C6C6C6C6C66C38100000000000C657
:100B8000C6C6C6D6D6FE6C6C0000000000C6C6C63F
:100B90007C387CC6C6C60000000000666666663CFF
:100BA0001818183C0000000000FEC68C183060C207
:100BB000C6FE00000000003C303030303030303CA9
:100BC000000000000080C0E070381C0E060200002B
:100BD0000000003C0C0C0C0C0C0C0C3C0000103801
:100BE0006CC60000000000000000000000000000D3
:100BF000000000000000000000FF0030180C0000A2
:100C00000000000000000000000000000000780C60
:100C10007CCCCC760000000000E06060786C6666FA
:100C2000667C00000000000000007CC6C0C0C67CDE
:100C300000000000001C0C0C3C6CCCCCCC760000FE
:100C40000000000000007CC6FEC0C67C0000000062
:100C5000001C3632307C303030780000000000005C
:100C6000000076CCCCCC7C0CCC78000000E060603E
:100C70006C76666666E600000000001818003818FA
:100C80001818183C00000000000606000E060606B4
:100C90000666663C000000E06060666C786C66E6A4
:100CA000000000000038181818181818183C000028
:100CB000000000000000ECFED6D6D6D600000000F2
:100CC00000000000DC66666666660000000000004A
:100CD00000007CC6C6C6C67C000000000000000004
:100CE000DC6666667C6060F000000000000076CC88
:100CF000CCCC7C0C0C1E000000000000DC76666092
:100D000060F000000000000000007CC6701CC67C83
:100D10000000000000103030FC303030361C000085
:100D2000000000000000CCCCCCCCCC760000000051
:100D300000000000C6C6C66C3810000000000000AD
:100D40000000C6C6D6D6FE6C000000000000000001
:100D5000C66C38386CC60000000000000000C6C633
:100D6000C6C67E060C78000000000000FECC1830DD
:100D700066FE00000000000E181818701818180EF3
:100D8000000000000018181818181818181800008B
:100D9000000000701818180E181818700000FF00D6
:100DA0000000000000000000000000FF00000048FC
:100DB0000000780C7CCCCC760000000000480000DD
:100DC0007CC6C6C6C67C0000000000480000CCCC33
:100DD000CCCCCC76000000440010386CC6C6FEC6F1
:100DE000C6C600000044007CC6C6C6C6C6C6C67CD1
:100DF0000000004400C6C6C6C6C6C6C6C67C000003
:100E000000000078CCCCF8CCCCCCF8C0C0C000003E
:0C0E10000018242418000000000000005E
:00000001FF
